:100000008A11E62F00308A000408840A820700342F
:10001000013400340034003400340134013401343C
:10002000013401340034013400340034013400342C
:10003000733474346134723474340A340D340034DB
:060040006F346B34003444
:10059C0001340134003400340030831203138C1AFC
:1005AC0001300800831203138C1EDD2ADE2AD82AA0
:1005BC001A080800F00083160313981CE62AE72A91
:1005CC00E12A70088312031399000800F100F0016E
:1005DC003A3071020318F32AF42AFC2A30307102E3
:1005EC00031CF92AFA2AFC2AF001F00A700C080004
:1005FC00F300F101F201112B7108730784008A11C9
:10060C0002208A118A11E0228A110130F1070318A5
:10061C00F20A0030F2077108730784008A11022075
:10062C008A11003A031D1B2B1C2B022B0800F50012
:10063C007508F4007408F6002E2B7008F400760888
:10064C0084007408831380000130F4007408F607EA
:10065C000130F2020030031CF303F302720A031D93
:10066C003B2B730A031D3B2B3C2B232B0800F40163
:10067C00F501701C422B432B492B7208F40703180D
:10068C00F50A7308F50701300310F20DF30DFF3E68
:10069C00031D4A2B01300310F10CF00CFF3E031D1F
:1006AC00512B70087104031D5C2B5D2B3F2B7508BF
:1006BC00F1007408F00008000730831203139F0048
:1006CC0020308316031385007230860083120313C7
:1006DC00850186010030A3000030A2001230A10079
:1006EC00C030A0008A11FF258A11823083120313B7
:1006FC00B300DD30B200B20B812BB30B812B0000A9
:10070C000800FC00F601F60A7C088A113A248A11CA
:10071C008312031324088400760883138000840A50
:10072C00770880000330FB007B08F6007C08013E54
:10073C008A113A248A11831203132508840076083F
:10074C0083138000840A77088000F601F60A7C087F
:10075C00043E8A113A248A1183120313260884005A
:10076C00760883138000840A770880000800F7005D
:10077C00F801F90183120313480C031C85110318AB
:10078C008515490C031C0512031805164A0C031C8D
:10079C000610031806144B0C031C8611031886153F
:1007AC007708F5007508F00048308A11D7248A11B3
:1007BC000D30F600FB30F500F50BE22BF60BE22BBF
:1007CC00E72B0130F8070318F90A0030F90779080C
:1007DC00803AFF0081307F02031DF62B91307802A6
:1007EC00031CF92BFA2BC02B0800F200F3018A1121
:1007FC00D8228A11F0007008F4000D307406031929
:10080C00082C092C142C0A30740603190E2C0F2CEE
:10081C00142C7408031D132C142C1C2C7308720735
:10082C00F0007008840083138001392C08307406A2
:10083C00031D212C222C2A2C73080319262C272C5F
:10084C002A2C0130F302FD2B7408F0007308720798
:10085C00F100710884007008831380000130F000EF
:10086C007008F307FD2B080083120313A300A001EB
:10087C00A101A2016C2C8312031322082307F80098
:10088C00780884002108F1002008F0000A30F200FA
:10089C000030F3008A113D238A118313000870077E
:1008AC00F9000030031801307107FA007908D03EC6
:1008BC0083120313A0007A080318013EFF3EA10027
:1008CC000130F6020130F8007808A2077608031907
:1008DC00702C712C7F2C22082307F80078088400D8
:1008EC00831300088A11EC228A1103187E2C7F2CAA
:1008FC00412C831203132108F7002008F60008008E
:10090C008230F800DD30F700F70B8A2CF80B8A2CBC
:10091C008F2C972CF001F00AF10101308A11CA26B4
:10092C008A1183120313861E9C2C9D2C902CA62CB2
:10093C00F001F00AF101F10A03308A11CA268A117A
:10094C0083120313061EAB2CAC2C9E2CB42CF00182
:10095C00F00AF10102308A11CA268A11831203139C
:10096C00061FB92CBA2CAD2C0E30F7007708F0000E
:10097C00F101F10A01308A11CA268A111A30F800E5
:10098C00F830F700F70BC82CF80BC82C00002D30F2
:10099C00F7007708F000F10103308A11CA268A119A
:1009AC000800F4007008031DDC2CDD2C072D7408E6
:1009BC00033E840083130008F1007108F2007408F0
:1009CC00023E84000008F1007408033E84007108A4
:1009DC008000740A84000008F1007408023E840050
:1009EC0071088000740884000008F100740A840007
:1009FC00710880007208F10074088400710880008E
:100A0C00352D7003031D0B2D0C2D352D7408840012
:100A1C0083130008F1007108F300740A84000008C5
:100A2C00F10074088400710880007408023E840090
:100A3C000008F100740A8400710880007408033EF9
:100A4C0084000008F1007408023E840071088000E4
:100A5C007308F1007408033E8400710880000800DC
:100A6C008A1162238A1111308A11FE228A118A118D
:100A7C0086248A118A11D2228A11003A0319472D31
:100A8C00482D402D37308A11FB238A1146308312B2
:100A9C000313B4003408A4004430B5003508A50095
:100AAC004230B6003608A60037308A1187238A11E7
:100ABC00033083120313B6008A30B5005530B400EE
:100ACC00B40B662DB50B662DB60B662D00003430BD
:100ADC008312031346064704031D752D762D7B2DBB
:100AEC0042088A11BD238A118B2D4408B4003408A6
:100AFC00F0004208B5003508F10046088A11CA26F4
:100B0C008A1119308A11FE228A110030F000F1008E
:100B1C000A30F2000030F30037308A111D238A119D
:100B2C00402D8A1100280030FC000030FB00003002
:100B3C00FA000030F9007308720471047004031990
:100B4C00A82DA92DF62DFD01FD0AB92D0130F800B7
:100B5C000310F00DF10DF20DF30DF80BAE2D01306D
:100B6C00F8007808FD07F31FBC2DBD2DAC2D01300E
:100B7C00F8000310F90DFA0DFB0DFC0DF80BBF2D51
:100B8C0073087702031DD42D72087602031DD42D31
:100B9C0071087502031DD42D70087402031CD72D27
:100BAC00D82DE72D7008F4027108031C710FF502A3
:100BBC007208031C720FF6027308031C730FF70202
:100BCC00791401300310F30CF20CF10CF00CFF3E15
:100BDC00031DE82D0130FD02031DF52DF62DBD2D55
:100BEC007C08F3007B08F2007A08F1007908F00029
:100BFC000800831203132008A4002108A500220872
:100C0C00A6002308A70006300310A40DA50DA60D01
:100C1C00A70DFF3E031D0A2E2708F3002608F2003D
:100C2C002508F1002408F0002008A8002108A900DC
:100C3C002208AA002308AB0006300310A80DA90D4A
:100C4C00AA0DAB0DFF3E031D232E0030AC00093066
:100C5C00AD003D30AE000030AF002808AC022908D2
:100C6C00031C290F3A2E3B2EAD022A08031C2A0F17
:100C7C00402E412EAE022B08031C2B0F462E472E66
:100C8C00AF022F08F7002E08F6002D08F5002C08EF
:100C9C00F4008A1199258A11710883120313B1008B
:100CAC007008B00001303102003003193002031C0F
:100CBC00602E612EB62E2008A4002108A500220863
:100CCC00A6002308A70004300310A40DA50DA60D43
:100CDC00A70DFF3E031D6A2E2708F3002608F2001D
:100CEC002508F1002408F0002008A8002108A9001C
:100CFC002208AA002308AB0004300310A80DA90D8C
:100D0C00AA0DAB0DFF3E031D832E0030AC00093045
:100D1C00AD003D30AE000030AF002808AC02290811
:100D2C00031C290F9A2E9B2EAD022A08031C2A0F96
:100D3C00A02EA12EAE022B08031C2B0FA62EA72E25
:100D4C00AF022F08F7002E08F6002D08F5002C082E
:100D5C00F4008A1199258A11831603131815C92ECC
:100D6C00831603131811831203133008831603130D
:100D7C0099001812981683120313181698178316D5
:100D8C000313861406110800F500F40183120313F3
:100D9C004108F2007208F600D92F1430F3007930B4
:100DAC00F200F20BD72EF30BD72EDC2E7108031D9D
:100DBC00E02EE12E4E2F7503031DE52EE62E042F9B
:100DCC007608093E84008A1102208A11F200F20D85
:100DDC00F20D8312031305087206FB3972068500A7
:100DEC0076080A3E84008A1102208A11F200F20D64
:100DFC0005087206FD3972068500BD2F0230750696
:100E0C00031D092F0A2F272F7608093E84008A110B
:100E1C0002208A11F2008312031305087206FE39B0
:100E2C007206850076080A3E84008A1102208A1117
:100E3C00F200F20CF20C050872067F39720685007E
:100E4C00BD2F03307506031D2C2F2D2F4D2F76082B
:100E5C00093E84008A1102208A11F200F20EF20D72
:100E6C00F20D8312031305087206BF397206850052
:100E7C0076080A3E84008A1102208A11F200F20CD4
:100E8C00F20C060872067F3972068600BD2FBD2F44
:100E9C007103031D522F532FBD2F7503031D572FA5
:100EAC00582F752F7608013E84008A1102208A1172
:100EBC00F200F20DF20D8312031305087206FB39D2
:100ECC00720685007608023E84008A1102208A117F
:100EDC00F200F20D05087206FD397206850002302B
:100EEC007506031D7A2F7B2F982F7608013E840000
:100EFC008A1102208A11F20083120313050872066C
:100F0C00FE39720685007608023E84008A110220A2
:100F1C008A11F200F20CF20C050872067F39720687
:100F2C008500BD2F03307506031D9D2F9E2FBD2FF1
:100F3C007608013E84008A1102208A11F200F20E1A
:100F4C00F20DF20D8312031305087206BF397206F7
:100F5C0085007608023E84008A1102208A11F20074
:100F6C00F20CF20C060872067F3972068600063007
:100F7C007606031DC22FC32FCA2F83120313C10180
:100F8C00FE30F2007208F600C730F200CD2FF20BE3
:100F9C00CC2FD02FD12F0230F2007208F60701307F
:100FAC00F2007208F40770087402031CDE2FDF2FA6
:100FBC00D32E7608F200720883120313C1000800C6
:100FCC008A11CE228A11C8008A11CF228A11C90037
:100FDC008A11D0228A11CA008A11D1228A11CB001F
:100FEC00C101C201C301C401C501C601C70183010E
:040FFC008A11362DF3
:08400000FF3FFF3FFF3FFF3FC0
:02400E00183F59
:00000001FF
